:020000020000FC
:1000000000C0239A259A229A52985A9A01E50CBD6B
:100010000E94330000C010E0EEE9F0E028E0129FFB
:10002000E00DF11D0E941F004A99FECF0E9448007A
:100030004A99FACF1395143008F01127EDCF31E02B
:1000400048E005910E94280033954A95D1F708951C
:100050002A983EBD0DB507FFFDCF0EBD0DB507FFBC
:10006000FDCF2A9A089509E020E00E9428000AE0C6
:1000700028E00E9428000BE027E00E9428000CE006
:1000800021E00E9428000FE020E00E94280008954F
:0E0090004FEF5FEF5A95F1F74A95D9F70895B3
:10013C000000000000000000183C7EDBFF3C7EA5A8
:10014C00423C7EDBFF66A581243C3C5ABD3C6642AA
:00000001FF
